:100000000C9463000C948B000C948B000C948B006C
:100010000C948B000C948B000C948B000C948B0034
:100020000C948B000C948B000C948B000C94390175
:100030000C948B000C948B000C948B000C948B0014
:100040000C9477040C948B000C94B8070C94EA077A
:100050000C948B000C948B000C948B000C948B00F4
:100060000C948B000C948B0000000008000201002F
:100070000003040700000000000000000102040863
:100080001020408001020408102001020408102002
:10009000040404040404040402020202020203032E
:1000A00003030303000000002300260029000000D2
:1000B0000000250028002B0000000000240027007D
:1000C0002A0056041A0811241FBECFEFD8E0DEBF65
:1000D000CDBF18E0A0E0B1E0E6EBF2E102C0059090
:1000E0000D92AE37B107D9F729E0AEE7B8E001C00D
:1000F0001D92A937B207E1F710E0C6ECD0E004C0CA
:100100002297FE010E945509C23CD107C9F70E94FF
:100110005E080C9459090C940000DC01ED91FC91EF
:100120000190F081E02D0994CF93DF93CAEDD7E0E1
:1001300060E088810E94140661E08881DF91CF91A0
:100140000C94140640ED57E060E070E08BE898E016
:100150000E94A40320E835E240E050E06CED78E036
:100160008BE898E00E94BA0361E08BE898E00E9477
:100170007A03882391F062EE77E08091CD08909128
:10018000CE080E94AB086AE070E080E090E00E9438
:10019000F0048BE898E00E94A30341E060E08BE864
:1001A00098E00E94380426E040E855E260E070E004
:1001B0008CED98E00E94560761E08091E0070E9474
:1001C000DB0561E08091DE070E94DB0561E0809144
:1001D000DC070E94DB0561E08091DA070E94DB0505
:1001E00061E08091D8070E94DB0562E08091D6072C
:1001F0000E94DB0562E08091D4070E94DB056AE083
:1002000070E08091E0070E94530561E08091DA0779
:100210000E94140660E08091D8070E94140660E0F6
:100220008091DE070E94140660E08091DC070E9446
:100230001406F894109280001092810010928500AC
:100240001092840088EB9BE0909389008093880053
:10025000809181008860809381008091810082601C
:100260008093810080916F00826080936F0078940A
:1002700008951F920F920FB60F9211242F933F9360
:100280004F935F936F937F938F939F93AF93BF939E
:10029000CF93DF93EF93FF9381E090E09093D107AA
:1002A0008093D007C1E0D0E08091D0079091D10732
:1002B000893191050CF067C0019729F461E08091C4
:1002C000DE070E941406D093CF07C093CE0720917B
:1002D000CE073091CF0725323105E4F51092820820
:1002E00040910401509105016091D0077091D107B0
:1002F000E6E0F1E080E090E084179507B4F4A08197
:10030000B1812A173B0771F4A281B3816A177B0779
:1003100049F461E08091D8070E94140681E080933F
:10032000820803C001963496E7CF8091820881113C
:1003300005C060E08091D8070E9414060E949400D6
:100340008091CE079091CF0701969093CF0780932D
:10035000CE07BDCF61E08091DC070E94140660E00B
:100360008091DC070E94140660E08091DE070E9405
:1003700014068091D0079091D10701969093D107F0
:100380008093D00791CFFF91EF91DF91CF91BF91F3
:10039000AF919F918F917F916F915F914F913F911D
:1003A0002F910F900FBE0F901F901895CF92DF9254
:1003B000EF92FF920F931F930E94C104672B682B4B
:1003C000692B39F40E94C1046230710581059105E1
:1003D000B8F18BE898E00E94E10260938308709383
:1003E000840880938508909386080091870810916F
:1003F00088082091890830918A0860177107820760
:10040000930740F460938708709388088093890865
:1004100090938A0800918708109188082091890894
:1004200030918A086B017C01C01AD10AE20AF30AF2
:10043000970186010A3F11052105310508F077C0B3
:100440008CED98E00E947306181619066CF48CED7A
:1004500098E00E948C069093D3078093D207BC014A
:100460008CED98E00E948D008091D6070E944A068C
:10047000019771F48091020190910301019721F499
:1004800010920301109202011092810810928008CC
:100490008091D4070E944A06019771F4809100016F
:1004A00090910101019721F4109201011092000135
:1004B00010927F0810927E088091D6070E944A060B
:1004C000892BB1F48091800890918108892B81F467
:1004D00061E370E08CED98E00E948D0081E090E097
:1004E0009093810880938008909303018093020188
:1004F0008091D4070E944A06892B09F05BC0809145
:100500007E0890917F08892B09F054C062E370E067
:100510008CED98E00E948D0081E090E090937F0840
:1005200080937E08909301018093000143C0609303
:100530008708709388088093890890938A0844EF0D
:1005400051E060E070E08BE898E00E94E30261E037
:100550008BE898E00E947A03882309F161E08BE838
:1005600098E00E94FF0264EF77E08091CD089091BF
:10057000CE080E94AB080E94C104AB01BC012AE076
:1005800030E08091CD089091CE080E941C098BE844
:1005900098E00E9465038BE898E00E94A30362E064
:1005A00070E080E090E00E94F0048BE898E00E9408
:1005B0006E0346CF1F910F91FF90EF90DF90CF9089
:1005C00008950C94C104CF93DF93EC014E875F87AD
:1005D000688B798B1A8A1B8A1C8A1D8A4E815F81DF
:1005E000688579854A875B876C877D870E94C1040F
:1005F0006E837F8388879987DF91CF910895BF921B
:10060000CF92DF92EF92FF920F931F93CF93DF93DE
:100610008C01B62E0E94C1046B017C01E801CE5B07
:10062000DF4F66EF77E0888199810E94AB084AE04E
:1006300050E06B2D888199810E9429096DEF77E048
:10064000888199810E94AB082AE030E0B701A601B9
:10065000888199810E941C096FEF77E088819981D8
:100660000E94AB08F80186819781A085B185B7010A
:10067000A601481B590B6A0B7B0B2AE030E08881EE
:1006800099810E941C096FEF77E0888199810E940F
:10069000AB08F80146815781608571858285938515
:1006A000A485B585481B590B6A0B7B0B2AE030E00B
:1006B00088819981DF91CF911F910F91FF90EF90E9
:1006C000DF90CF90BF900C941C098E5B9F4F61E030
:1006D00078E0FC01808191810C94B108CF93DF9385
:1006E000EC010E94C1046E837F8388879987DF9124
:1006F000CF9108950F931F93CF93DF93EC01611176
:1007000016C00E94C1040A811B812C813D81601B9F
:10071000710B820B930B693171058105910538F4DA
:1007200063E070E080E090E00E94F004EACF0E9475
:10073000C1046A837B838C839D8381E0DF91CF91A9
:100740001F910F9108950895FC01EC5BFF4F1082FB
:10075000118212821382FC0112821382148215828A
:10076000411551056105710521F0CB01BA010C94C9
:10077000F0040895FB01BA01A9018E5B9F4FDC01D3
:10078000ED93FC9326E0CF010C9456078E5B9F4FB0
:10079000DC018D919C91DC01ED91FC910680F7814B
:1007A000E02D099508958E5B9F4FDC018D919C9102
:1007B000DC01ED91FC910480F581E02D099508950F
:1007C0001F93CF93DF93EC01162F0E94C1046A831D
:1007D0007B838C839D83CE5BDF4F68E078E08881EC
:1007E00099810E94AB084AE050E0612F888199818D
:1007F0000E9429096FE078E0888199810E94AB0806
:1008000062E370E080E090E0DF91CF911F910C9463
:10081000F0041F93CF93DF93EC01162F8E8988236A
:1008200011F1CE010E94D303811102C085E61CC0E4
:10083000CE010E94D3038823C9F3CE010E94C603D0
:10084000883689F048F4883569F0833689F7612F56
:10085000CE010E94E00307C0813729F0863741F7B7
:1008600086E702C01E8A83E6DF91CF911F9108952B
:100870000F931F93CF93DF931F92CDB7DEB78C01F9
:10088000611108C0F801468B0F90DF91CF911F9145
:100890000F91089581E0F801868B60E0C8014983DB
:1008A0000E94090449818336C1F7ECCF1092910868
:1008B0001092920810929308109294081092950842
:1008C0001092960810929708109298081092990822
:1008D00010929A0810929B0810929C0810929D0802
:1008E00010929E0810929F081092A00808951F92DF
:1008F0000F920FB60F9211242F933F938F939F93D4
:10090000AF93BF938091D4089091D508A091D60859
:10091000B091D7083091D30823E0230F2D3720F46E
:100920000196A11DB11D05C026E8230F0296A11D49
:10093000B11D2093D3088093D4089093D508A09339
:10094000D608B093D7088091D8089091D908A09183
:10095000DA08B091DB080196A11DB11D8093D8087B
:100960009093D908A093DA08B093DB08BF91AF91B8
:100970009F918F913F912F910F900FBE0F901F90DD
:1009800018952FB7F8946091D4087091D50880918C
:10099000D6089091D7082FBF08953FB7F89480915B
:1009A000D8089091D908A091DA08B091DB0826B553
:1009B000A89B05C02F3F19F00196A11DB11D3FBF97
:1009C0006627782F892F9A2F620F711D811D911D27
:1009D00042E0660F771F881F991F4A95D1F7089547
:1009E000CF92DF92EF92FF92CF93DF936B017C0166
:1009F0000E94CD04EB01C114D104E104F10489F09B
:100A00000E9430090E94CD046C1B7D0B683E734030
:100A100090F381E0C81AD108E108F108C851DC4F11
:100A2000EACFDF91CF91FF90EF90DF90CF900895C4
:100A3000789484B5826084BD84B5816084BD85B5B9
:100A4000826085BD85B5816085BDEEE6F0E0808180
:100A500081608083E1E8F0E01082808182608083A1
:100A6000808181608083E0E8F0E080818160808324
:100A7000E1EBF0E0808184608083E0EBF0E0808156
:100A800081608083EAE7F0E08081846080838081F8
:100A900082608083808181608083808180688083A0
:100AA0001092C10008951F93CF93DF93182FEB018D
:100AB00061E00E94DB05209711F460E004C0CF3FA5
:100AC000D10539F461E0812FDF91CF911F910C9412
:100AD0001406E12FF0E0E859FF4FE491E330F9F01C
:100AE00048F4E130B9F0E230A1F584B5806284BD0C
:100AF000C8BD34C0E730E9F0E83019F1E43049F519
:100B000080918000806280938000D0938B00C0939E
:100B10008A0024C084B5806884BDC7BD1FC0809191
:100B20008000806880938000D0938900C093880003
:100B300015C08091B00080688093B000C093B3006E
:100B40000DC08091B00080628093B000C093B4006B
:100B500005C0C038D1050CF0B5CFAFCFDF91CF9134
:100B60001F910895833081F028F4813099F082300C
:100B7000A1F008958730A9F08830B9F08430D1F41D
:100B8000809180008F7D03C0809180008F7780935B
:100B90008000089584B58F7702C084B58F7D84BDB1
:100BA00008958091B0008F7703C08091B0008F7D51
:100BB0008093B0000895CF93DF9390E0FC01E45858
:100BC000FF4F2491FC01E057FF4F8491882349F1A6
:100BD00090E0880F991FFC01E854FF4FA591B49154
:100BE00082559F4FFC01C591D4919FB7611108C0F8
:100BF000F8948C91209582238C93888182230AC05B
:100C0000623051F4F8948C91322F309583238C9379
:100C10008881822B888304C0F8948C91822B8C93DA
:100C20009FBFDF91CF9108950F931F93CF93DF93D1
:100C30001F92CDB7DEB7282F30E0F901E859FF4FFA
:100C40008491F901E458FF4F1491F901E057FF4FE7
:100C500004910023C9F0882321F069830E94B20522
:100C60006981E02FF0E0EE0FFF1FE255FF4FA591E5
:100C7000B4919FB7F8948C91611103C010958123B2
:100C800001C0812B8C939FBF0F90DF91CF911F915B
:100C90000F910895CF93DF93282F30E0F901E859A1
:100CA000FF4F8491F901E458FF4FD491F901E057C7
:100CB000FF4FC491CC2391F081110E94B205EC2F1B
:100CC000F0E0EE0FFF1FEC55FF4FA591B4912C9172
:100CD0002D2381E090E021F480E002C080E090E0EC
:100CE000DF91CF910895FC01818D228D90E0805C91
:100CF0009F4F821B91098F7399270895FC01918D55
:100D0000828D981731F0828DE80FF11D858D90E06E
:100D100008958FEF9FEF0895FC01918D828D9817B4
:100D200061F0828DDF01A80FB11D5D968C91928DCF
:100D30009F5F9F73928F90E008958FEF9FEF0895CC
:100D400080E198E0892B49F080E090E0892B29F040
:100D50000E94100881110C9400000895FC01848DFC
:100D6000DF01A80FB11DA35ABF4F2C91848D90E0D5
:100D700001968F739927848FA689B7892C93A089B0
:100D8000B1898C9180648C93938D848D981306C067
:100D90000288F389E02D80818F7D80830895CF9331
:100DA000DF93EC01888D8823C9F0EA89FB89808173
:100DB00085FD05C0A889B9898C9186FD0FC00FB645
:100DC00007FCF5CF808185FFF2CFA889B9898C9186
:100DD00085FFEDCFCE010E94AE06E7CFDF91CF9128
:100DE0000895CF92DF92FF920F931F93CF93DF93DB
:100DF0001F92CDB7DEB76C0181E0D60158968C9377
:100E000058975B969C915B975C968C915C97981336
:100E100007C05096ED91FC915197808185FD2EC0C1
:100E2000F601038D10E00F5F1F4F0F731127F02E97
:100E3000F601848DF81211C00FB607FCF9CFD60168
:100E40005096ED91FC915197808185FFF1CFC601BD
:100E500069830E94AE066981EBCF838DE80FF11D97
:100E6000E35AFF4F6083D6015B960C935B975296D3
:100E7000ED91FC915397808180620CC0D60156960B
:100E8000ED91FC91579760835096ED91FC915197AD
:100E900080818064808381E090E00F90DF91CF912A
:100EA0001F910F91FF90DF90CF900895BF92CF9246
:100EB000DF92EF92FF92CF93DF93EC016A017B0107
:100EC000B22EE889F98982E08083411581EE5807C6
:100ED00061057105A1F060E079E08DE390E0A70184
:100EE00096010E9431092150310941095109569555
:100EF000479537952795211580E1380798F0E889BF
:100F0000F989108260E874E88EE190E0A70196010B
:100F10000E943109215031094109510956954795DF
:100F200037952795EC85FD853083EE85FF852083F9
:100F3000188EEC89FD89B082EA89FB898081806105
:100F40008083EA89FB89808188608083EA89FB89C4
:100F5000808180688083EA89FB8980818F7D80839E
:100F6000DF91CF91FF90EF90DF90CF90BF900895E9
:100F70001F920F920FB60F9211242F938F939F936E
:100F8000EF93FF93E091EC08F091ED088081E09100
:100F9000F208F091F30882FD12C090818091F5086B
:100FA0008F5F8F732091F608821751F0E091F5085A
:100FB000F0E0E452F74F958F8093F50801C08081EF
:100FC000FF91EF919F918F912F910F900FBE0F90F6
:100FD0001F9018951F920F920FB60F9211242F9306
:100FE0003F934F935F936F937F938F939F93AF93B1
:100FF000BF93EF93FF938CED98E00E94AE06FF91B4
:10100000EF91BF91AF919F918F917F916F915F9180
:101010004F913F912F910F900FBE0F901F901895F9
:101020008CED98E00E94730621E0892B09F420E002
:10103000822F08951092DF081092DE0888EE93E068
:10104000A0E0B0E08093E0089093E108A093E2086C
:10105000B093E30884E698E09093DD088093DC0881
:1010600085EC90E09093E9088093E80884EC90E0A8
:101070009093EB088093EA0880EC90E09093ED0861
:101080008093EC0881EC90E09093EF088093EE0859
:1010900082EC90E09093F1088093F00886EC90E069
:1010A0009093F3088093F2081092F5081092F608D6
:1010B0001092F7081092F808089508950E941805F4
:1010C0000E945D080E94A200C0EAD6E00E94D601FC
:1010D0002097E1F30E94A006F9CFCF92DF92EF9222
:1010E000FF920F931F93CF93DF937C016A01EB0173
:1010F00000E010E00C151D0571F06991D701ED912C
:10110000FC910190F081E02DC7010995892B19F020
:101110000F5F1F4FEFCFC801DF91CF911F910F914C
:10112000FF90EF90DF90CF9008956115710581F0E9
:10113000DB010D900020E9F7AD0141505109461B3C
:10114000570BDC01ED91FC910280F381E02D0994B5
:1011500080E090E008950C94950865E178E00C94A7
:1011600095080F931F93CF93DF93EC010E9495088E
:101170008C01CE010E94AD08800F911FDF91CF91AD
:101180001F910F9108958F929F92AF92BF92CF922D
:10119000DF92EF92FF920F931F93CF93DF93CDB720
:1011A000DEB7A1970FB6F894DEBF0FBECDBF7C01AE
:1011B000C42EE52FCB01D22E19A221E02D1510F05F
:1011C0002AE0D22E8E010F5D1F4F8D2C912CA12C69
:1011D000B12C6C2D7E2FA50194010E9431098C2D1C
:1011E000D29E80191124015011098A3014F4805DB7
:1011F00001C0895CF8018083211531054105510545
:1012000021F0C22EE32FCA01E4CFB801C7010E942A
:101210009508A1960FB6F894DEBF0FBECDBFDF9143
:10122000CF911F910F91FF90EF90DF90CF90BF90E3
:10123000AF909F908F9008952115310541F4DC0106
:10124000ED91FC910190F081E02D642F09940C94B4
:10125000C3089A01462F50E060E070E00C941C092E
:101260000895A1E21A2EAA1BBB1BFD010DC0AA1FE7
:10127000BB1FEE1FFF1FA217B307E407F50720F0FF
:10128000A21BB30BE40BF50B661F771F881F991F7A
:101290001A9469F760957095809590959B01AC01C3
:1012A000BD01CF010895EE0FFF1F0590F491E02DD1
:0612B0000994F894FFCF41
:1012B60002000100B201290001002A0001002B00F2
:1012C60001002C0001000C0002000D0002000E00BF
:1012D60002000F00020010000200110002001D00B3
:1012E60002001E0002001F00020020000200210072
:1012F6000200290002002A0002002B0002002C0036
:1013060002003700020038000200390002003A00ED
:1013160002003B0002003C0002003D0002003E00CD
:1013260002003F00020040000200410002004200AD
:10133600020043000200440002004500020046008D
:101346000200470002000E0003000F0003001C000D
:1013560003001D0003001E0003001F0003002900F8
:1013660003002A0003002B0003002C0003003600B4
:1013760003003700030038000300390003003A0079
:1013860003003B0003003C0003003D0003003E0059
:1013960003003F0003004000030041000300420039
:1013A60003004300030044000300450003000E0051
:1013B60004000F0004001B0004001C0004001D00B4
:1013C60004001E000400290004002A0004002B006B
:1013D60004002C000400360004003700040043001B
:1013E600040044000400450004000E0005000F0040
:1013F60005001A0005001B0005001C0005001D0065
:1014060005001E000500290005002A0005002B0026
:1014160005002C00050036000500430005004400C9
:101426000500450005000E0006000F000600190025
:1014360006001A0006001B0006001C0006001D0020
:1014460006001E000600290006002A0006002B00E2
:1014560006002C0006003600060043000600440085
:101466000600450006000E0007000F0007001800E2
:101476000700190007001A0007001B0007001C00E0
:1014860007001D0007001E000700290007002A00AC
:1014960007002B0007002C0007004300070044004C
:1014A6000700450007000E0008000F00080017009F
:1014B600080018000800190008001A0008001B00A0
:1014C60008001C0008001D0008001E000800290076
:1014D60008002A0008002B0008002C000800430022
:1014E600080044000800450008000E0009000F002F
:1014F6000900160009001700090018000900190064
:1015060009001A0009001B0009001C0009001D0043
:1015160009001E000900290009002A0009002B0005
:1015260009002C00090039000900430009004400A5
:101536000900450009000E000A000F000A00150008
:101546000A0016000A0017000A0018000A0019000F
:101556000A001A000A001B000A001D000A001E00ED
:101566000A0029000A002A000A002B000A002C00A3
:101576000A0039000A003A000A0043000A00440043
:101586000A0045000A000E000B000F000B001400B5
:101596000B0015000B0016000B0017000B001800BF
:1015A6000B0019000B001A000B001D000B001E009B
:1015B6000B0029000B002A000B002B000B002C004F
:1015C6000B0039000B003A000B0043000B004400EF
:1015D6000B0045000B000E000C000F000C00130062
:1015E6000C0014000C0015000C0016000C0017006F
:1015F6000C0018000C0019000C001D000C001E0049
:101606000C0029000C002A000C002B000C002C00FA
:101616000C0039000C003A000C003B000C003C00AA
:101626000C003D000C003E000C003F000C0040008A
:101636000C0041000C0042000C0043000C0044006A
:101646000C0045000C000E000D000F000D001200EE
:101656000D0013000D0014000D0015000D001600FE
:101666000D0017000D0018000D001D000D001E00D6
:101676000D0029000D002A000D002B000D002C0086
:101686000D0039000D003A000D0043000D00440026
:101696000D0045000D000E000E000F000E0011009B
:1016A6000E0012000E0013000E0014000E001500AE
:1016B6000E0016000E0017000E001D000E001E0084
:1016C6000E0029000E002A000E002B000E002C0032
:1016D6000E0039000E003A000E0043000E004400D2
:1016E6000E0045000E000E000F000F000F00100048
:1016F6000F0011000F0012000F0013000F0014005E
:101706000F0015000F0016000F001D000F001E0031
:101716000F0029000F002A000F002B000F002C00DD
:101726000F0039000F0043000F0044000F00450072
:101736000F000E0010000F00100010001000110026
:101746001000120010001300100014001000150005
:1017560010001D0010001E001000290010002A00B5
:1017660010002B0010002C00100043001000440055
:101776001000450010000E0011000F0011001000AF
:1017860011001100110012001100130011001400C5
:1017960011001D0011001E001100290011002A0071
:1017A60011002B0011002C00110043001100440011
:1017B6001100450011000E0012000F00120010006B
:1017C60012001100120012001200130012001D0078
:1017D60012001E001200290012002A0012002B001F
:1017E60012002C00120043001200440012004500B3
:1017F60012000E0013000F0013001000130011005A
:101806001300120013001D0013001E001300290010
:1018160013002A0013002B0013002C0013003600BF
:1018260013004300130044001300450013000E008C
:1018360014000F00140010001400110014001D0005
:1018460014001E001400290014002A0014002B00A6
:1018560014002C0014003600140043001400440049
:101866001400450014000E0015000F0015001000AE
:1018760015001D0015001E001500290015002A0080
:1018860015002B0015002C0015003600150037003A
:1018960015004300150044001500450015000E0014
:1018A60016000F0016001D0016001E001600290067
:1018B60016002A0016002B0016002C001600360013
:1018C60016003700160038001600390016003A00D8
:1018D60016003B0016003C0016003D0016003E00B8
:1018E60016003F0016004000160041001600420098
:1018F60016004300160044001600450016000E00B0
:1019060017001B0017001C0017001D0017001E0003
:1019160017001F00170020001700290017002A00D3
:1019260017002B0017002C0017003700170038008F
:101936001700390017003A0017003B0017003C005B
:1019460017003D0017003E0017003F00170040003B
:10195600170041001700420017004300170044001B
:10196600170045001700460017004700170029001A
:1019760018002A0018002B0018002C00180001007F
:1019860001003100030002000800090004000A00FB
:101996000B00564D4450565F317C315F564D4450D6
:1019A600560D0A007C00564D4450455F003A323AC7
:1019B600005F564D44504500564D4450435F005F0E
:1019C600564D4450430D0A004572726F723A2041DB
:1019D6007474656D707420746F2073657420612053
:1019E600726561642D6F6E6C7920766172696162D1
:1019F6006C65206F72206461746120747970652053
:101A06006E6F7420737570706F727465640D0A0062
:101A160000000000F1066D0873068C067E06CF06F0
:0E1A26006E616E00696E66006F7666002E00BF
:00000001FF
